:020000042000DA
:1000000080009FE580F09FE580009FE580109FE5E0
:1000100080209FE5020051E10430903404308134A7
:10002000FBFFFF3A70D09FE504002DE56C009FE5D3
:1000300030FF2FE104009DE464109FE564209FE5FC
:10004000020051E10430903404308134FBFFFF3A68
:1000500054009FE554109FE50020A0E3010050E10B
:1000600004208034FCFFFF3AD2F021E328D09FE542
:1000700060404DE253F021E304D0A0E130009FE561
:1000800030FF2FE1FEFFFFEA000020000800002003
:10009000C09500200000300000003000FCFF1F2051
:1000A0001D5500200000200028002000C0950020E1
:1000B00094D60020E10900200000A0E10000A0E1AA
:1000C00004B02DE500B08DE28C029FE5000090E5C4
:1000D00000E090E584029FE50200BEE8001080E5A4
:1000E0000100BEE800F069E1FF7FDEE80000A0E16A
:1000F0003CE09EE504F05EE214309FE5003093E5BD
:1001000010309FE5003093E500D08BE204B09DE411
:100110001EFF2FE1848C00202C96002004E08EE24C
:1001200004002DE500204DE90000A0E104D04DE2DF
:1001300004009DE4004020E900E0A0E104009DE40B
:10014000FF7F4EE90000A0E13CE04EE200004FE1FD
:1001500001002EE904029FE5000090E501002EE970
:10016000F4019FE5000090E500E080E54C309FE55C
:10017000003093E548309FE5003093E5761200FAB1
:10018000D4019FE5000090E500E090E5CC019FE5FB
:100190000200BEE8001080E50100BEE800F069E161
:1001A000FF7FDEE80000A0E13CE09EE504F05EE2B7
:1001B00008309FE5003093E504309FE5003093E57B
:1001C000848C00202C96002004002DE500204DE9B1
:1001D0000000A0E104D04DE204009DE4004020E9CD
:1001E00000E0A0E104009DE4FF7F4EE90000A0E1F3
:1001F0003CE04EE200004FE101002EE95C019FE58A
:10020000000090E501002EE94C019FE5000090E51B
:1002100000E080E560309FE5003093E55C309FE5CD
:10022000003093E5F41100FA4B1200FA50309FE5CC
:1002300050209FE5082092E5302183E518019FE5D5
:10024000000090E500E090E510019FE50200BEE8A7
:10025000001080E50100BEE800F069E1FF7FDEE804
:100260000000A0E13CE09EE504F05EE208309FE57E
:10027000003093E504309FE5003093E5848C002046
:100280002C96002000F0FFFF30FDFFFF04002DE55D
:1002900000000FE1C00080E300F029E104009DE4CC
:1002A0001EFF2FE104002DE500000FE1C000C0E3B8
:1002B00000F029E104009DE41EFF2FE104B02DE5CC
:1002C00000B08DE204002DE500000FE1C00080E3E6
:1002D00000F029E104009DE418309FE5003093E52B
:1002E000012083E20C309FE5002083E500D08BE203
:1002F00004B09DE41EFF2FE1848C002004B02DE5A6
:1003000000B08DE24C309FE5003093E5000053E3F0
:100310000D00000A3C309FE5003093E5012043E2E8
:1003200030309FE5002083E528309FE5003093E5DD
:10033000000053E30400001A04002DE500000FE163
:10034000C000C0E300F029E104009DE400D08BE28E
:1003500004B09DE41EFF2FE1848C00202C96002029
:10036000848C002000482DE904B08DE210D04DE2CD
:1003700008000BE50C100BE510200BE508001BE551
:100380000110A0E30A0C00FA0020A0E148309FE52C
:10039000002083E508301BE5013083E20300A0E183
:1003A0000110A0E3020C00FA0020A0E12C309FE530
:1003B000002083E520309FE5002093E50C301BE50D
:1003C000002083E514309FE5002093E510301BE505
:1003D000002083E504D04BE20088BDE8C0950020F2
:1003E000C495002004002DE500204DE90000A0E1A7
:1003F00004D04DE204009DE4004020E900E0A0E1CB
:1004000004009DE4FF7F4EE90000A0E13CE04EE2E5
:1004100000004FE101002EE980019FE5000090E51A
:1004200001002EE978019FE5000090E500E080E5FD
:100430004C309FE5003093E548309FE5003093E570
:10044000110000EB58019FE5000090E500E090E509
:1004500048019FE50200BEE8001080E50100BEE80B
:1004600000F069E1FF7FDEE80000A0E13CE09EE5EE
:1004700004F05EE208309FE5003093E504309FE52C
:10048000003093E5848C00202C96002000482DE954
:1004900004B08DE210D04DE20030A0E310300BE547
:1004A000E8309FE5E4209FE5141092E5DC209FE50D
:1004B000102092E5022001E0142083E5143093E53A
:1004C00008300BE508301BE5023003E2000053E37F
:1004D0001300000AB8309FE5001093E509204BE2B5
:1004E00010304BE20100A0E10210A0E10320A0E1E6
:1004F000780D00FA0030A0E1010053E30500001A76
:1005000088309FE509205BE5022CA0E1422CA0E1A8
:100510001C2083E5020000EA70309FE50220A0E382
:100520000C2083E508301BE5013003E2FF3003E2D5
:10053000000053E30C00000A50309FE5183093E5AB
:10054000FF3003E209304BE548309FE5001093E5AA
:1005500009204BE210304BE20100A0E10210A0E1C3
:100560000320A0E10030A0E3AA0C00FA10301BE544
:10057000000053E30000000A771100FA18309FE5ED
:100580000020A0E3302183E504D04BE20088BDE8E1
:100590000000FBFFC4950020C095002000F0FFFF85
:1005A000848C00202C96002004E04EE21F582DE998
:1005B0001CB08DE208D04DE29C329FE5002093E50F
:1005C00098329FE5030052E10200009AD330A0E385
:1005D000BE314BE1490000EA7C329FE5003093E5F3
:1005E0007C229FE5020053E10020A0930120A0831C
:1005F000FF2002E2011083E25C329FE5001083E5F8
:10060000000052E30200000AE730A0E3BE314BE1F4
:100610003A0000EA40329FE5003093E5FA0E53E3DA
:100620000020A0930120A083FF2002E2011083E2BA
:1006300024329FE5001083E5000052E30200000A27
:10064000FE30A0E3BE314BE12C0000EA08329FE50A
:10065000003093E50C229FE5020053E10020A093B7
:100660000120A083FF2002E2011083E2E8319FE530
:10067000001083E5000052E30200000AE8319FE524
:10068000BE314BE11D0000EACC319FE5003093E51F
:100690007D0E53E30020A0930120A083FF2002E2FF
:1006A000011083E2B0319FE5001083E5000052E3C2
:1006B0000200000AB4319FE5BE314BE10F0000EAB1
:1006C00094319FE5003093E5FA0F53E30020A093A7
:1006D0000120A083FF2002E2011083E278319FE530
:1006E000001083E5000052E30200000A80319FE51C
:1006F000BE314BE1010000EA78319FE5BE314BE1AC
:1007000074319FE5183093E56C019FE533FF2FE1CD
:1007100068319FE5243093E5103093E55C019FE557
:1007200033FF2FE150319FE5143093E550019FE5F1
:1007300044119FE533FF2FE148319FE5003093E5F9
:10074000012083E23C319FE5002083E534319FE5C1
:10075000003093E5FA0F53E3040000DA24319FE5FB
:100760000020A0E3002083E50000A0E32A1900FA9E
:1007700008319FE5403093E5010053E32800001A5B
:1007800004319FE5543093E5FC009FE533FF2FE1F2
:10079000F8309FE5004093E5F4309FE5183093E58D
:1007A0000400A0E3E8109FE533FF2FE10020A0E163
:1007B000E0309FE5042183E7D0309FE5004093E5DA
:1007C000CC309FE5183093E50500A0E3C0109FE50D
:1007D00033FF2FE10020A0E1BC309FE5042183E737
:1007E000A8309FE5003093E5012083E29C309FE52F
:1007F000002083E594309FE5002093E59C309FE541
:10080000030052E1060000DA6C309FE5183093E5F2
:1008100064009FE533FF2FE184309FE50120A0E3D2
:10082000002083E554309FE5403093E5000053E31A
:100830000020A0130120A00340309FE5402083E565
:1008400060309FE530209FE5002092E5202092E572
:10085000302183E51CD04BE21F98FDE8D0950020A5
:100860007017000088130000B80B00001A01000088
:100870003D0100006B010000A70100009C900020DA
:10088000F0D50020ED090000D4950020149100203F
:10089000ECD500206C910020ACB600206C970020B5
:1008A000CE0700006897002000F0FFFF04E04EE252
:1008B0001F582DE91CB08DE288309FE5083093E584
:1008C000183093E57C209FE5082092E50200A0E126
:1008D00033FF2FE16C309FE50C3093E5183093E542
:1008E00060209FE50C2092E50200A0E133FF2FE19C
:1008F00054309FE5003093E5012083E248309FE5C6
:10090000002083E540309FE5003093E5E10F53E39D
:10091000040000DA30309FE50020A0E3002083E5EA
:100920000000A0E3BC1800FA20309FE514209FE5EA
:100930000C2092E5002092E5202092E5302183E50D
:100940001CD04BE21F98FDE814910020CC950020AC
:1009500000F0FFFF04E04EE21F582DE91CB08DE2CD
:100960006C309FE5003093E52020A0E3182083E55C
:100970005C309FE5003093E5022CA0E3202183E565
:1009800050309FE5003093E5012083E244309FE53D
:10099000002083E53C309FE5003093E5320E53E3C1
:1009A000040000DA2C309FE50020A0E3002083E55E
:1009B0000000A0E3981800FA1C309FE510209FE586
:1009C000002092E5102092E5302183E51CD04BE217
:1009D0001F98FDE814910020C895002000F0FFFF4B
:1009E00080B584B004AF00F083F91C4A1C49802311
:1009F0005B01012000900020019000200290002067
:100A00000390081C111C1A1C002303F0E9FA154A74
:100A1000154980235B0102200090002001900020F6
:100A2000029000200390081C111C1A1C002303F0E4
:100A3000D7FA0E4A0E4980235B0100200090002067
:100A400001900020029000200390081C111C1A1C29
:100A5000002303F0C5FA03F0B1FEFEE79085002005
:100A6000750A002098850020950B0020A0850020A5
:100A7000A90C0020F0B58FB000AF7860444B7B63C9
:100A8000002006F05BF802F0EBFA02F08FFB394B26
:100A9000374ABA62FB62384A384B3A627B62384A5C
:100AA000384BBA61FB61B86AF96A3A6A7B6A07F047
:100AB000C2EA021C0B1C101C191CBA69FB6907F066
:100AC00072E9021C0B1CBA60FB6003F06BFF031C95
:100AD0003B6300E0C0463A1C30327B6B101C191C93
:100AE00003F0CCFB234B224ABA62FB62224A234B1F
:100AF0003A627B62224A234BBA61FB61B86AF96AA7
:100B00003A6A7B6A07F096EA021C0B1C101C191C3F
:100B1000BA69FB6907F046E9021C0B1C3A617B616C
:100B200038697969BA68FB6806F032EF021C0B1C61
:100B3000111C0C1C5B005D0801231E1C201C291CC1
:100B4000114A124B07F012EC031C002B01D10023B9
:100B50001E1C33061B0E002BBCD0002005F0EEFF40
:100B60007B6B181C03F000FCFAE7C046C046C04689
:100B7000AE47E17A145678C0CDCCCCCC8CBCDF40EB
:100B800039D6C56D340000C0FCA9F1D24D62503F8A
:100B900088130000F0B58FB000AF7860FA235B00D7
:100BA0007B633A4B384ABA62FB62394A394B3A6244
:100BB0007B62394A394BBA61FB61B86AF96A3A6AB1
:100BC0007B6A06F0E8EE021C0B1C101C191CBA69AB
:100BD000FB6907F0E8E8021C0B1CBA60FB6003F03D
:100BE000E1FE031C3B633A1C30327B6B101C191C6A
:100BF00003F044FB254B244ABA62FB62244A254B8E
:100C00003A627B62244A254BBA61FB61B86AF96A91
:100C10003A6A7B6A06F0BEEE021C0B1C101C191C03
:100C2000BA69FB6907F0BEE8021C0B1C3A617B61E4
:100C300038697969BA68FB6806F0AAEE021C0B1CD9
:100C4000111C0C1C5B005D0801231E1C201C291CB0
:100C5000134A144B07F08AEB031C002B01D100232D
:100C60001E1C33061B0E002B07D0012005F066FF6B
:100C70007B6B181C03F078FBFAE7012005F0CEFF30
:100C8000B1E7C046C046C0465305A3923ADD5E4078
:100C900082E2C7985B53A240B29DEFA7C6B18CC059
:100CA000FCA9F1D24D62503F80B584B000AF7860AE
:100CB00000E0C0460C4B19683A1C0F320B4B081C65
:100CC000111C1A1C01F02EFC031C002BF1D0064B4A
:100CD0001A683B1C0F331B781B061B16101C191CB3
:100CE000002201F059FCE5E7D8950020FFFF000045
:100CF00090B587B000AF3B1C0D4A13CA13C313CA8B
:100D000013C3002005F0FAFE012005F0F7FE3B1C9E
:100D1000181C022105F0A4F9E1235A0280235B018B
:100D2000101C191C01F0B0FBBD4607B090BDC046B9
:100D3000A8850020C046C04680B584B000AF78606A
:100D4000134B1B68FB607B68FA68D318BB607B6839
:100D5000002B07DABA687B685B42101C00211A1C62
:100D600007F08EFB0B4B1B68BA689A4204D30A4B00
:100D70001B68BA689A4202D901235B4203E0044B24
:100D8000BA681A60FB68181CBD4604B080BDC04636
:100D9000E4950020DC950020E095002080B582B02D
:100DA00000AF786039600B4B7A681A607A683B68EC
:100DB000D218094B1A60094B7A681A60054B1B68F8
:100DC0001A1C3B68101C00211A1C07F059FBBD4679
:100DD00002B080BDDC950020E0950020E495002065
:100DE00080B58CB000AF7860794B9B683B623B6A02
:100DF0005B6803229343FB613A6AFB69D318BB61CA
:100E0000744B1A687B68D31810337B6280235B01B4
:100E10007B61714B1B68013307D07A697B6AD318F9
:100E2000013B7A69524213407B627B6A181CFFF7D0
:100E300083FF031CFB62FB6A013300D1C0E0FA6A46
:100E4000BB699A4204D2624B3A6A9A4200D0B9E036
:100E5000624B1B681A1C7B6AD3181A1C5F4B1A6002
:100E6000FA6ABB699A420AD17A6AFB69D3183B6174
:100E7000574B9B683A6901210A435A6081E0564BFF
:100E80001B68013303D1544BFA6A1A6007E0534BD5
:100E90001A68F96ABB69CB1AD218504B1A60FB6A00
:100EA00008331A1C07231340FB60FB68002B08D093
:100EB000FB680822D31ABB62FA6ABB6AD318FB62CA
:100EC00001E00023BB62FA6A7B6AD3181A1C7B69B3
:100ED000D318013B7A6952421A40F96A7B6ACB18EF
:100EE000D31ABA6AD318BB62BB6A181CFFF724FF77
:100EF000031CBB60BB68013366D0384B1B681A1CEF
:100F0000BB6AD3181A1C354B1A60FA6A304B9A60C8
:100F1000BA68FB6AD31A1A1CBB6AD3183B612C4B04
:100F20009B683A6901210A435A60294B3A6A9A42FE
:100F300027D0FB690F2B04D8254B9B6801225A60F0
:100F400043E0FB690C3B07229343FB613B6A5A6811
:100F500001231A40FB691A433B6A5A603A6AFB69EB
:100F6000D31805225A60FB6904333A6AD318052264
:100F70005A60FB690F2B04D93B6A0833181C00F038
:100F800027FB164B1B681A1C154B1B689A4204D989
:100F9000124B1B681A1C124B1A60104B1B681A1C50
:100FA000104B1B68D218104B1B689A420DD90B4B83
:100FB0001B681A1C0B4B1B68D2180B4B1A6004E001
:100FC000C04602E0C04600E0C046BD460CB080BD51
:100FD000888C0020E895002098900020F89500204B
:100FE000F095002020960020F495002080B590B068
:100FF00000AF7860C44B1B68002B0BD1C34B1B6840
:10100000002B07D1C24AC349C14BCB1A101C191C73
:10101000FFF7C4FE7B68002B01DA0023D1E27B6876
:101020000B33162B04DD7B680B330722934300E060
:101030001023BB61BA69B84B9A423AD8BB69DB0846
:10104000BB63B64ABB6BDB00D318FB61FB69DB6893
:10105000FB63FA6BFB699A4205D1FB690833FB61BC
:10106000FB69DB68FB63FA6BFB699A421DD0FB6B83
:101070005B68032293437B61FB6BDB683B62FB6B2A
:101080009B687B627B6A3A6ADA603B6A7A6A9A603A
:10109000FA6B7B69D318F96B7A698A185268012157
:1010A0000A435A60FB6B08338BE2BB6B0233BB63B2
:1010B00072E0BB695B0A002B02D1BB69DB082BE045
:1010C000BB695B0A042B03D8BB699B09383323E057
:1010D000BB695B0A142B03D8BB695B0A5B331BE05B
:1010E000BB695B0A542B03D8BB691B0B6E3313E03F
:1010F000BB695A0AAA235B009A4203D8BB69DB0B7F
:10110000773309E0BB695A0A854B9A4203D8BB6919
:101110009B0C7C3300E07E23BB63804ABB6BDB000F
:10112000D3187B637B6BDB68FB632EE0FB6B5B6838
:10113000032293437B617A69BB69D31A3B633B6BA0
:101140000F2B03DDBB6B013BBB6322E03B6B002B32
:1011500018DBFB6BDB683B62FB6B9B687B627B6A2B
:101160003A6ADA603B6A7A6A9A60FA6B7B69D318EA
:10117000F96B7A698A18526801210A435A60FB6B3D
:1011800008331EE2FB6BDB68FB63FA6B7B6B9A42F6
:10119000CCD1BB6B0133BB63604B08339B68FB63F3
:1011A0005E4B0833FA6B9A4200D1FCE0FB6B5B6844
:1011B000032293437B617A69BB69D31A3B633B6B20
:1011C0000F2B28DDFA6BBB69D3183B61BB69012289
:1011D0001A43FB6B5A60514B1A1C08324F4B0833B1
:1011E0003969D960DB6893604C4B1A1C08323B6943
:1011F000DA603B69DA683B699A603B6B0122134312
:101200001A1C3B695A603B6B3A69D3183A6B1A60F7
:10121000FB6B0833D5E1414B1A1C08323F4B0833B6
:101220003E490831D960DB6893603B6B002B0CDBD7
:10123000FA6B7B69D318F96B7A698A1852680121B5
:101240000A435A60FB6B0833BBE17A69354B9A421B
:1012500028D87B69DB08FB60304B5B681A1CFB6895
:10126000002B00DA03339B100121081C9840031C5B
:1012700013431A1C294B5A60284AFB68DB00D31819
:101280003B623B6A9B687B62FB6B3A6ADA60FB6B92
:101290007A6A9A603B6AFA6B9A603B6A9A687B6AE0
:1012A000DA6080E07B695B0A002B02D17B69DB0896
:1012B0003BE07B695B0A042B03D87B699B093833CD
:1012C00033E07B695B0A142B03D87B695B0A5B33D1
:1012D0002BE07B695B0A542B03D87B691B0B6E33B5
:1012E00023E07B695A0AAA235B009A4203D87B69F0
:1012F000DB0B773319E07B695A0A094B9A4213D802
:101300007B699B0C7C3310E0DC950020E09500208D
:1013100000002020FCFF2F20F7010000888C002017
:1013200054050000FF0100007E23FB60A74AFB6814
:10133000DB00D3183B623B6A9B687B627A6A3B6A3C
:101340009A4213D1A14B5B681A1CFB68002B00DA90
:1013500003339B100121081C9840031C13431A1CE3
:101360009A4B5A6012E07B6A9B687B627A6A3B6A9E
:101370009A4208D07B6A5B680322191C91430A1CBD
:101380007B699A42EFD87B6ADB683B62FB6B3A6A07
:10139000DA60FB6B7A6A9A603B6AFA6B9A603B6A26
:1013A0009A687B6ADA60BB6B002B00DA03339B1010
:1013B0000122101C9840031CFB62844B5B68FA6A94
:1013C0009A4200D9C8E0814B5B68FA6A1340002B4F
:1013D00014D1BB6B032293430433BB63FB6A5B00F2
:1013E000FB6205E0BB6B0433BB63FB6A5B00FB6223
:1013F000764B5B68FA6A1340002BF3D0BB6BBB6281
:10140000724ABB6BDB00D3187B637B6BFB617B6B2E
:10141000DB68FB635FE0FB6B5B68032293437B61EC
:101420007A69BB69D31A3B633B6B0F2B34DDFA6BD4
:10143000BB69D3183B61BB6901221A43FB6B5A603D
:10144000FB6BDB683B62FB6B9B687B627B6A3A6A87
:10145000DA603B6A7A6A9A605C4B1A1C08325B4B12
:1014600008333969D960DB689360584B1A1C08321D
:101470003B69DA603B69DA683B699A603B6B012241
:1014800013431A1C3B695A603B6B3A69D3183A6B99
:101490001A60FB6B083394E03B6B002B18DBFA6B94
:1014A0007B69D318F96B7A698A18526801210A435B
:1014B0005A60FB6BDB683B62FB6B9B687B627B6A01
:1014C0003A6ADA603B6A7A6A9A60FB6B083378E0C2
:1014D000FB6BDB68FB63FA6B7B6B9A429BD17B6B8C
:1014E00008337B63BB6B0133BB63BA6B03231340CD
:1014F000002B8CD1BA6A03231340002B08D1334B45
:101500005B68FA6AD24313401A1C304B5A600AE0F7
:10151000BB6A013BBB62FB69083BFB61FB699A68E4
:10152000FB699A42E6D0FB6A5B00FB62274B5B6873
:10153000FA6A9A4210D8FB6A002B0DD005E0BB6B0B
:101540000433BB63FB6A5B00FB62204B5B68FA6A97
:101550001340002BF3D051E71C4B9B685B680322C0
:10156000191C91430A1CBB69D31A3B633B6B0F2BBD
:1015700012DCBB69181CFFF733FC144B9B685B68DB
:101580000322181C9043021CBB69D31A3B633B6BBC
:101590000F2B01DC002314E00C4B9B68FB63BB6941
:1015A00001221A43FB6B5A60FA6BBB69D218074BD6
:1015B0009A60064B9B683A6B01210A435A60FB6BA9
:1015C0000833181CBD4610B080BDC046888C002072
:1015D00080B58CB000AF78607B68002B00D15AE1F9
:1015E0007B68083BFB62FB6A5B68BB61BB690122ED
:1015F0009343BB62FA6ABB6AD3187B617B695B6801
:10160000032293433B61A74B9A687B699A4234D18A
:10161000BA6A3B69D318BB62BA6901231340002B35
:1016200017D1FB6A1B68FB60FB685B42FA6AD31840
:10163000FB62BA6AFB68D318BB62FB6ADB687B6239
:10164000FB6A9B683B623B6A7A6ADA607B6A3A6A49
:101650009A60BB6A01221A43FB6A5A60914BFA6A8C
:101660009A60914B1B68BA6A9A4200D215E18F4B7F
:101670001B68181C00F0E2FD10E17B693A695A60B2
:101680000023FB61BA6901231340002B20D1FB6AC0
:101690001B68FB60FB685B42FA6AD318FB62BA6A9C
:1016A000FB68D318BB62FB6A9A687E4B08339A4288
:1016B00002D10123FB610BE0FB6ADB687B62FB6A02
:1016C0009B683B623B6A7A6ADA607B6A3A6A9A6034
:1016D0007A693B69D3185A6801231340002B2DD136
:1016E000BA6A3B69D318BB62FB69002B1AD17B69CC
:1016F0009A686C4B08339A4214D10123FB61694B01
:101700001A1C0832674B0833F96AD960DB689360AA
:10171000644B1A1C0832FB6ADA60FB6ADA68FB6AFF
:101720009A600BE07B69DB687B627B699B683B624C
:101730003B6A7A6ADA607B6A3A6A9A60BB6A01221B
:101740001A43FB6A5A60FA6ABB6AD318BA6A1A600B
:10175000FB69002B00D0A1E0BA6A554B9A4228D809
:10176000BB6ADB08BB604F4B5B681A1CBB68002B75
:1017700000DA03339B100121081C9840031C13431B
:101780001A1C484B5A60474ABB68DB00D3187B627F
:101790007B6A9B683B62FB6A7A6ADA60FB6A3A6A38
:1017A0009A607B6AFA6A9A607B6A9A683B6ADA6036
:1017B00074E0BB6A5B0A002B02D1BB6ADB082BE03A
:1017C000BB6A5B0A042B03D8BB6A9B09383323E04E
:1017D000BB6A5B0A142B03D8BB6A5B0A5B331BE052
:1017E000BB6A5B0A542B03D8BB6A1B0B6E3313E036
:1017F000BB6A5A0AAA235B009A4203D8BB6ADB0B76
:10180000773309E0BB6A5A0A2A4B9A4203D8BB6A6B
:101810009B0C7C3300E07E23BB60224ABB68DB006C
:10182000D3187B627B6A9B683B623A6A7B6A9A4206
:1018300013D11C4B5B681A1CBB68002B00DA033306
:101840009B100121081C9840031C13431A1C154BC4
:101850005A6012E03B6A9B683B623A6A7B6A9A4232
:1018600008D03B6A5B680322191C91430A1CBB6ABF
:101870009A42EFD83B6ADB687B62FB6A7A6ADA607D
:10188000FB6A3A6A9A607B6AFA6A9A607B6A9A682B
:101890003B6ADA6002E0C04600E0C046BD460CB0DC
:1018A00080BDC046888C002090900020E8950020E4
:1018B000FF0100005405000080B59CB000AF7860C7
:1018C00039603B68002B01DA002352E37B68002B70
:1018D00005D13B68181CFFF789FB031C49E37B68B3
:1018E000083BFB63FB6BFB66FB6B5B68032293436C
:1018F000BB63BB6BBB663B680B33162B04DD3B68DD
:101900000B330722934300E010237B63BA6B7B6B9E
:101910009A4200DBEFE2FA6BBB6BD3187B66E04BBD
:101920009A687B6E9A420AD07B6E5B680122934371
:101930007A6ED3185A6801231340002B45D17B6E71
:101940005B68032293433B66D54B9A687B6E9A4251
:1019500023D13A6EBB6ED3181A1C7B6B10339A429C
:1019600038DBBA6E3B6ED318BB66FA6B7B6BD21852
:10197000CB4B9A60CA4B9B68B96E7A6B8A1A01216D
:101980000A435A60FB6B5A6801231A407B6B1A4367
:10199000FB6B5A60FB6B0833EBE23A6EBB6ED318FD
:1019A0001A1C7B6B9A4217DB7B6EDB683B637B6E9A
:1019B0009B68FB62FB6A3A6BDA603B6BFA6A9A607F
:1019C000BA6E3B6ED318BB6695E200237B6600239C
:1019D0003B6602E0C04600E0C046FB6B5A6801234C
:1019E0001340002B00D0EFE1FB6B1B685B42FA6BEE
:1019F000D318BB62BB6A5B68032293437B627B6E36
:101A0000002B00D14EE1A64B9A687B6E9A4200D023
:101A1000A8E03A6E7B6AD218BB6ED3181A1C7B6B97
:101A200010339A4200DA3DE1BB6ADB683B63BB6A74
:101A30009B68FB62FB6A3A6BDA603B6BFA6A9A60FE
:101A4000BB6AFB667A6A3B6ED318BA6ED318BB6664
:101A5000FB6E08333B62BB6B043BFB61FB69242BD1
:101A600061D87B68FB653B6ABB65FB69132B41D979
:101A7000FB6D1A68BB6D1A60BB6D0433BB65FB6DF3
:101A80000433FB65FB6D1A68BB6D1A60BB6D0433D4
:101A9000BB65FB6D0433FB65FB691B2B2AD9FB6D12
:101AA0001A68BB6D1A60BB6D0433BB65FB6D0433F4
:101AB000FB65FB6D1A68BB6D1A60BB6D0433BB65BB
:101AC000FB6D0433FB65FB69232B13D9FB6D1A688F
:101AD000BB6D1A60BB6D0433BB65FB6D0433FB65E6
:101AE000FB6D1A68BB6D1A60BB6D0433BB65FB6D83
:101AF0000433FB65FB6D1A68BB6D1A60BB6D043364
:101B0000BB65FB6D0433FB65FB6D1A68BB6D1A602A
:101B1000BB6D0433BB65FB6D0433FB65FB6D1A685D
:101B2000BB6D1A6007E0396A7A68FB69081C111CF2
:101B30001A1C06F027FCFA6E7B6BD218584B9A6081
:101B4000574B9B68B96E7A6B8A1A01210A435A6017
:101B5000FB6E5A6801231A407B6B1A43FB6E5A6076
:101B60003B6A06E23A6E7B6AD218BB6ED3181A1C27
:101B70007B6B9A4200DA95E07B6EDB683B637B6EA1
:101B80009B68FB62FB6A3A6BDA603B6BFA6A9A60AD
:101B9000BB6ADB683B63BB6A9B68FB62FB6A3A6BB0
:101BA000DA603B6BFA6A9A60BB6AFB663A6E7B6AE4
:101BB000D318BA6ED318BB66FB6E08333B62BB6B9F
:101BC000043BBB61BB69242B61D87B687B653B6AA6
:101BD0003B65BB69132B41D97B6D1A683B6D1A605D
:101BE0003B6D04333B657B6D04337B657B6D1A680D
:101BF0003B6D1A603B6D04333B657B6D04337B6545
:101C0000BB691B2B2AD97B6D1A683B6D1A603B6D33
:101C100004333B657B6D04337B657B6D1A683B6DDC
:101C20001A603B6D04333B657B6D04337B65BB6998
:101C3000232B13D97B6D1A683B6D1A603B6D0433FF
:101C40003B657B6D04337B657B6D1A683B6D1A6069
:101C50003B6D04333B657B6D04337B657B6D1A689C
:101C60003B6D1A603B6D04333B657B6D04337B65D4
:101C70007B6D1A683B6D1A603B6D04333B657B6D71
:101C800004337B657B6D1A683B6D1A6033E1396AFA
:101C90007A68BB69081C111C1A1C06F073FB2AE148
:101CA000888C0020BB6A002B00D18DE07A6ABB6E65
:101CB000D3181A1C7B6B9A4200DA85E0BB6ADB689A
:101CC0003B63BB6A9B68FB62FB6A3A6BDA603B6B07
:101CD000FA6A9A60BB6AFB66BA6E7B6AD318BB6607
:101CE000FB6E08333B62BB6B043B7B617B69242B3F
:101CF00061D87B68FB643B6ABB647B69132B41D969
:101D0000FB6C1A68BB6C1A60BB6C0433BB64FB6C65
:101D10000433FB64FB6C1A68BB6C1A60BB6C043345
:101D2000BB64FB6C0433FB647B691B2B2AD9FB6C03
:101D30001A68BB6C1A60BB6C0433BB64FB6C043365
:101D4000FB64FB6C1A68BB6C1A60BB6C0433BB642D
:101D5000FB6C0433FB647B69232B13D9FB6C1A687F
:101D6000BB6C1A60BB6C0433BB64FB6C0433FB6458
:101D7000FB6C1A68BB6C1A60BB6C0433BB64FB6CF5
:101D80000433FB64FB6C1A68BB6C1A60BB6C0433D5
:101D9000BB64FB6C0433FB64FB6C1A68BB6C1A609D
:101DA000BB6C0433BB64FB6C0433FB64FB6C1A68D0
:101DB000BB6C1A609FE0396A7A687B69081C111C49
:101DC0001A1C06F0DFFA96E03B68181CFFF70EF9C4
:101DD000031C3B623B6A002B01D10023C9E03B6A34
:101DE000083BFB66FB6B5B6801229343FA6BD318DD
:101DF000FA6E9A4209D1FB6E5B6803229343BA6E76
:101E0000D318BB66FB6BFB6675E0BB6B043B3B61A9
:101E10003B69242B61D87B687B643B6A3B643B69EC
:101E2000132B41D97B6C1A683B6C1A603B6C0433F2
:101E30003B647B6C04337B647B6C1A683B6C1A607C
:101E40003B6C04333B647B6C04337B643B691B2B2E
:101E50002AD97B6C1A683B6C1A603B6C04333B6478
:101E60007B6C04337B647B6C1A683B6C1A603B6C44
:101E700004333B647B6C04337B643B69232B13D9B1
:101E80007B6C1A683B6C1A603B6C04333B647B6C64
:101E900004337B647B6C1A683B6C1A603B6C0433C4
:101EA0003B647B6C04337B647B6C1A683B6C1A600C
:101EB0003B6C04333B647B6C04337B647B6C1A683F
:101EC0003B6C1A603B6C04333B647B6C04337B6477
:101ED0007B6C1A683B6C1A6007E0396A7A683B6968
:101EE000081C111C1A1C06F04DFA7B68181CFFF721
:101EF0006FFB3B6A3DE0BA6E7B6BD31A0F2B24D984
:101F0000FA6E7B6BD318FB60BA6E7B6BD31ABB6027
:101F1000FB6E5A6801231A407B6B1A43FB6E5A60B2
:101F2000BB6801221A43FB685A60FA68BB68D31881
:101F3000F968BA688A18526801210A435A60FB6836
:101F40000833181CFFF744FB11E0FB6E5A680123AD
:101F50001A40BB6E1A43FB6E5A60FA6EBB6ED31802
:101F6000F96EBA6E8A18526801210A435A60FB6EF4
:101F70000833181CBD461CB080BDC04680B58CB06F
:101F800000AF786039603B68002B01DA002395E0F0
:101F90007B68082B05D83B68181CFFF727F8031C43
:101FA0008CE07B680F2B01D810237B603B680B33E0
:101FB000162B04DD3B680B330722934300E010230C
:101FC0007B627A6A7B68D3181033181CFFF70EF80F
:101FD000031C3B623B6A002B01D100236EE03B6A8D
:101FE000083BFB623B6A181C796805F0BCEC0B1CD3
:101FF000002B3ED07B68013B3A6AD3187A68524284
:102000001340083BBB62BA6AFB6AD31A0F2B03D892
:10201000BA6A7B68D318BB62BB6AFB61BA6AFB6AA7
:10202000D31ABB61FB6A5B680322191C91430A1C2B
:10203000BB69D31A7B617B6901221A43FB695A6031
:10204000FA697B69D318F9697A698A18526801219B
:102050000A435A60FB6A5A6801231A40BB691A4353
:10206000FB6A5A60FB6A0833181CFFF7B1FAFB6978
:10207000FB62FB6A5B680322191C91430A1C7B6AA2
:10208000D31A3B613B690F2B16DDFA6A7B6AD318C2
:10209000FB603B69012213431A1CFB685A60FB6A10
:1020A0005A6801231A407B6A1A43FB6A5A60FB682C
:1020B0000833181CFFF78CFAFB6A0833181CBD465E
:1020C0000CB080BD80B582B000AF786080235A012B
:1020D0007B68101C191CFFF751FF031C181CBD4620
:1020E00002B080BD80B584B000AF786080235B0112
:1020F000FB607A68FB68D318013BFA6852421340D0
:10210000FA68101C191CFFF739FF031C181CBD4688
:1021100004B080BD80B58AB000AF786039607B685C
:102120003A685343FB613E4B9B68BB613C4B9B68E9
:102130005B68032293437B61FB69181CFEF756FF23
:10214000031C3B617B68002B01DA002363E03B69E1
:10215000002B01D100235EE03B69083BFB60FB687C
:102160005B68032293437B62FA68BB699A4205D19C
:102170007A6A7B699A4201D97B697B627B6A043BFC
:10218000BB60BB68242B3ED83B693B62BB68132B0A
:1021900029D93B6A00221A603B6A04333B623B6ADE
:1021A00000221A603B6A04333B62BB681B2B1AD9BE
:1021B0003B6A00221A603B6A04333B623B6A00229E
:1021C0001A603B6A04333B62BB68232B0BD93B6A22
:1021D00000221A603B6A04333B623B6A00221A60A9
:1021E0003B6A04333B623B6A00221A603B6A043359
:1021F0003B623B6A00221A603B6A04333B623B6AE3
:1022000000221A6006E03A69BB68101C00211A1C03
:1022100006F036F93B69181CBD460AB080BDC046C1
:10222000888C002080B582B000AF78607B68181C75
:10223000FFF7CEF9BD4602B080BDC04680B588B07C
:1022400000AF786080235B01FB61314B9B685B686A
:1022500003229343BB61BA697B68D21AFB69D31826
:10226000113B181CF96905F000EB031C013BFA69EE
:1022700053437B61FA697B699A4201DD002342E0A6
:102280000020FEF759FD031C3B61214B9B681A1C83
:10229000BB69D2183B699A4201D0002333E07B69C5
:1022A0005B42181CFEF748FD031CFB60FB68013312
:1022B0001AD10020FEF740FD031C3B613A69144B24
:1022C0009B68D31ABB61BB690F2B0BDD3A69114BBD
:1022D0001B68D21A104B1A600D4B9B68BA6901211A
:1022E0000A435A6000230EE0094B9B68B9697A697A
:1022F0008A1A01210A435A60074B1A687B69D21A6D
:10230000054B1A600123181CBD4608B080BDC046AD
:10231000888C002098900020F895002080B584B02B
:1023200000AF78607B68002B01D1002320E07B6840
:10233000083BFB60FB685A6802231340002B12D154
:10234000FB685B6801229343FA68D3185A6801233B
:102350001340002B01D100230AE0FB685B680322D5
:102360009343043B04E0FB685B6803229343083B10
:10237000181CBD4604B080BD80B582B000AF786047
:1023800039607B68DA1C12D0DA1C02DC043313D00B
:102390001CE09A1C06D0013318D13A680E4B1A6023
:1023A000012314E03A680D4B1A6001230FE03A68EC
:1023B0000B4B1A6001230AE03B68002B01D000237D
:1023C00005E03A68074B1A60012300E00023181C5F
:1023D000BD4602B080BDC04690900020E895002028
:1023E00094900020EC95002080B582B000AF78601A
:1023F00001235B42181CBD4602B080BD80B584B08D
:1024000000AFF860B9607A600023181CBD4604B0C4
:1024100080BDC04680B582B000AF786001235B42CA
:10242000181CBD4602B080BD80B582B000AF786098
:1024300039603B68802292015A600023181CBD4617
:1024400002B080BD80B582B000AF78600123181C57
:10245000BD4602B080BDC04680B584B000AFF86014
:10246000B9607A600023181CBD4604B080BDC04628
:1024700080B584B000AFF860B9607A600023181CA2
:10248000BD4604B080BDC04680B584B000AF786062
:1024900039600123FB6039681D4A1E4B081C111C62
:1024A0001A1CFDF760EF1A4B1B68002B28D0194B44
:1024B0001B68002B24D0062003F032FFFDF7FEEE50
:1024C00015488C2319017A68144B04F077F9124BE4
:1024D000181C012104F096F90F4B181C012104F07F
:1024E000A7F90D4B01229A600D4B062002211A1C00
:1024F00003F0C0FC062003F0E7FCFDF700EF01E06D
:102500000023FB60FB68181CBD4604B080BDC046BC
:1025100024960020289600200000FBFF00A0DF0783
:10252000E403002080B584B000AFF860B9607A6041
:10253000094B1968BA687B68081C111C1A1C002317
:1025400001F0E4F9031C002B01D0012300E000237B
:10255000181CBD4604B080BD2496002080B586B00E
:1025600000AFF860B960BB1D1A80BB687B610CE0EE
:102570007B691B78FA681B061B16101C191C0022AD
:1025800000F00AF87B6901337B617B691B78002BC3
:10259000EED1BD4606B080BD80B584B000AFF86016
:1025A0007A603B1C0B330A1C1A700C4B19683A1CDE
:1025B0000B327B68081C111C1A1C002301F076F8F2
:1025C000031C012B01D0002303E0054B03229A607A
:1025D0000123181CBD4604B080BDC04628960020CB
:1025E0000000FBFF80B582B000AF7860BD4602B04E
:1025F00080BDC04680B584B000AFF8607A603B60B3
:102600003B1C0B330A1C1A70BB699B68002B2CD136
:10261000BB69FA681A60BB693A1C0B3212781A71EE
:102620003B1C0B331B78181C03F07AFEFDF746EEBB
:10263000FA687B68101C191C04F042F8FB68102231
:102640005A623B1C0B331A783B68101C03211A1C7E
:1026500003F010FC3B1C0B331B78181C03F034FCFC
:10266000FDF74CEEBB6901229A600023181CBD46A1
:1026700004B080BD80B582B000AF78607B681B6815
:10268000181C04F03BF87B681B79181C03F030FC25
:102690007B681B79181C03F081FE7B6800229A601E
:1026A0000023181CBD4602B080BDC04680B582B074
:1026B00000AF021C3960BB1D1A803B689B68012B70
:1026C00002D001235B420AE03B681B68BA1D1288F6
:1026D000DA613B681B68181C04F006F80023181C1C
:1026E000BD4602B080BDC04680B582B000AF786004
:1026F0007B689B68012B02D001235B4205E07B686D
:102700001B68181C03F0FAFF0023181CBD4602B01A
:1027100080BDC04680B582B000AF786039603B684C
:102720001B6A002B1DD13A687B68101C191C05F030
:10273000EDFE0E4B181C0A2103F092FC0C4B181CEA
:1027400003F01AFD0B4B181C03F016FD0A4B181C66
:1027500003F006FD094B181C03F00EFD3B68012237
:102760001A620023181CBD4602B080BDC08500203F
:1027700020860020CC8500202C8600201486002096
:1027800080B582B000AF7860074B181C03F0F4FCF2
:10279000064B181C03F0F0FC7B6800221A62002331
:1027A000181CBD4602B080BD148600202C86002077
:1027B00080B582B000AF78607B681B6A012B02D0C5
:1027C00001235B4204E0044B181C03F0C9FC002306
:1027D000181CBD4602B080BD1486002080B582B0B2
:1027E00000AF78607B681B6A012B02D001235B423B
:1027F00004E0044B181C03F0BFFC0023181CBD466A
:1028000002B080BD1486002080B582B000AF786031
:102810007B681B6A012B02D001235B4208E0064B58
:10282000181C03F09DFC044B181C03F0A5FC0023AE
:10283000181CBD4602B080BDE485002080B582B082
:1028400000AF786039603B681B6A012B02D001231E
:102850005B422EE03B687A689A637B68042B15D054
:10286000052B1CD0022B08D1144B181C03F084FC40
:10287000134B181C03F080FC1AE0104B181C03F0DB
:102880006FFC0F4B181C03F077FC11E00B4B181C6E
:1028900003F072FC0A4B181C03F062FC08E0074BC3
:1028A000181C03F05DFC064B181C03F059FCC046D5
:1028B0000023181CBD4602B080BDC046088600201B
:1028C000F085002080B582B000AF786039603B6849
:1028D0001B6A012B02D001235B4210E03B687A683F
:1028E000DA637B68082B04D0074B181C03F044FC08
:1028F00004E0054B181C03F033FCC0460023181CF1
:10290000BD4602B080BDC046FC85002080B582B0C7
:1029100000AF786039603B681B6A012B02D001234D
:102920005B4200E00023181CBD4602B080BDC046DB
:1029300080B582B000AF786039603B681B6A012BBC
:1029400002D001235B4200E00023181CBD4602B008
:1029500080BDC04680B584B000AFF8607A603B604F
:102960003B1C0B330A1C1A70BB699B68002B2FD1D0
:10297000BB69FA681A60BB693A1C0B3212781A718B
:102980003B1C0B331B78181C03F0CAFCFDF796ECBC
:10299000FA687B68101C191C03F092FE3B68002B40
:1029A00011D0FB6810225A623B1C0B331A783B682B
:1029B000101C03211A1C03F05DFA3B1C0B331B781F
:1029C000181C03F081FAFDF79AECBB6901229A60AA
:1029D0000023181CBD4604B080BDC04680B582B03F
:1029E00000AF78607B681B68181C03F087FE7B686B
:1029F0001B79181C03F07CFA7B681B79181C03F008
:102A0000CDFC7B6800229A600023181CBD4602B0F2
:102A100080BDC04680B582B000AF021C3960BB1DCE
:102A20001A803B689B68012B02D001235B420EE0B9
:102A30003B681B6801225A613B681B68BA1D1288FB
:102A4000DA613B681B68181C03F04EFE0023181C5B
:102A5000BD4602B080BDC04680B582B000AF786090
:102A60007B689B68012B02D001235B4205E07B68F9
:102A70001B68181C03F042FE0023181CBD4602B060
:102A800080BDC04680B584B000AFF8607A603B601E
:102A90003B1C0B330A1C1A70BB699B68002B2FD19F
:102AA000BB69FA681A60BB693A1C0B3212781A715A
:102AB0003B1C0B331B78181C03F032FCFDF7FEEBBC
:102AC000FA687B68101C191C03F0FAFD3B68002BA8
:102AD00011D0FB6810225A623B1C0B331A783B68FA
:102AE000101C03211A1C03F0C5F93B1C0B331B7887
:102AF000181C03F0E9F9FDF702ECBB6901229A60AA
:102B00000023181CBD4604B080BDC04680B582B00D
:102B100000AF78607B681B68181C03F0EFFD7B68D2
:102B20001B79181C03F0E4F97B681B79181C03F06F
:102B300035FC7B6800229A600023181CBD4602B059
:102B400080BDC04680B582B000AF021C3960BB1D9D
:102B50001A803B689B68012B02D001235B420EE088
:102B60003B681B6801225A613B681B68BA1D1288CA
:102B7000DA613B681B68181C03F0B6FD0023181CC3
:102B8000BD4602B080BDC04680B582B000AF78605F
:102B90007B689B68012B02D001235B4205E07B68C8
:102BA0001B68181C03F0AAFD0023181CBD4602B0C8
:102BB00080BDC04680B584B000AFF8607A603B60ED
:102BC0003B1C0B330A1C1A703B6A1B6B002B4AD14F
:102BD0003B6AFA681A603B6A3A1C0B3212781A7127
:102BE0003B6A1A1C10327B68101C191C05F08EFC05
:102BF0001F4B181C092103F033FA3B1C0B331B78C5
:102C0000181C03F08DFBFDF75AEB3B1C0B331A78B5
:102C1000F9683B68081C111C1A1C03F06BFCFA686D
:102C2000BB69101C00211A1C03F082FCFA68902377
:102C30005B001049D150FB68181C03F047FC3B1C9B
:102C40000B331A78FB69101C03211A1C03F012F9CC
:102C50003B1C0B331B78181C03F036F9FDF74EEBC9
:102C60003B6A01221A630023181CBD4604B080BDD4
:102C7000388600200202000080B582B000AF786084
:102C80007B689B681A697B689B68181C90477B6807
:102C9000DB681A697B68DB68181C90477B681B68D7
:102CA000181C03F01DFC7B681B79181C03F020F92D
:102CB0007B681B79181C03F071FB7B6800221A6388
:102CC0000023181CBD4602B080BDC04680B582B04E
:102CD00000AF78607B681B6B012B02D001235B4245
:102CE00004E0044B181C03F03BFA0023181CBD46FB
:102CF00002B080BD3886002080B582B000AF786019
:102D00007B681B6B012B02D001235B4204E0044B68
:102D1000181C03F031FA0023181CBD4602B080BD18
:102D20003886002080B582B000AF78607B681B6B6E
:102D3000012B02D001235B4218E00E4B181C03F05C
:102D40001BFA0C4B181C03F017FA0A4B181C03F063
:102D500013FA084B181C03F003FA064B181C03F077
:102D6000FFF9044B181C03F0FBF90023181CBD46A7
:102D700002B080BD6886002080B584B000AFF860E6
:102D80007A603B1C0A330A1C1A807B681B6B012B80
:102D900002D001235B4220E07B681A6890235B002D
:102DA00080218900D1507B681A68F96884235B0010
:102DB000D1507B681A683B1C0A33198886235B0054
:102DC000D1507B681B6820225A617B681A68902367
:102DD0005B0080214900D1500023181CBD4604B07F
:102DE00080BDC04680B582B000AF021C3960BB1DFB
:102DF0001A803B681B6B012B02D001235B4214E05D
:102E00003B689B685A693B689B68B91D0988081C28
:102E1000191C90473B68DB685A693B68DB68B91D41
:102E20000988081C191C90470023181CBD4602B0D5
:102E300080BDC04690B583B000AF78607B681B6BE7
:102E4000012B02D001235B421BE07B689B6C7A68FC
:102E5000101C98477B68DC6C7B685A6B7B68101C85
:102E60006C211A1CA0477B681B6D08497A68081CF6
:102E7000111C98477B685B6B1A1C6C327B685A6329
:102E80000023181CBD4603B090BDC0468F1600003D
:102E900090B589B006AF7860081C111C1A1CFB1C89
:102EA0001870BB1C19707B1C1A703B6B9B68002B45
:102EB00035D13B6B7A681A603B6BFA1C12781A7139
:102EC000194B181C042103F0CBF8174B181C03F006
:102ED00053F9164B181C03F04FF97868FB1C19784E
:102EE000BB1C1A787B1C1B783C1C1834247800947B
:102EF0003C1C1C34247801943C6A02947C6A039440
:102F0000BC6A0494FC6A059402F030FE7B680122DE
:102F10001A617B6802221A613B6B01229A600023CE
:102F2000181CBD4603B090BDA4860020B0860020CA
:102F300080B582B000AF78607B681B6801225A615F
:102F40007B681B6802225A617B6800229A6000231A
:102F5000181CBD4602B080BD80B582B000AF78605D
:102F600039603B689B68012B02D001235B422DE056
:102F70007B68062B05D87B689A00164BD3181B6814
:102F80009F46154B181C03F0F7F8144B181C03F060
:102F9000F3F81AE0104B181C03F0E2F80F4B181C62
:102FA00003F0EAF811E00C4B181C03F0E5F80B4BAA
:102FB000181C03F0D5F808E0074B181C03F0D0F8F4
:102FC000064B181C03F0CCF8C0460023181CBD4665
:102FD00002B080BDD4860020A4860020B0860020E8
:102FE00080B584B000AF786039603B689B68012B86
:102FF00002D001235B422EE03B681B6802221A606C
:103000007B68062B08D8AC23DA057B68111C994035
:103010000B1C002B0FDB00E0C0463B681B68DA6925
:1030200001231340002BF8D03B681B681B6B9B05EA
:103030009B0DFB600EE0C0463B681B68DA6902230B
:103040001340002BF8D03B681B685B6B9B059B0D06
:10305000FB60C046FB68181CBD4604B080BDC0467E
:1030600090B589B008AF3A4BDC683A493A4A3B4BD5
:1030700037480090081C1321A047394B394A5A623F
:10308000374B5B6A1B683849354A081C111C984746
:10309000334B5B6A5B69324A0320111C9847304B03
:1030A0005B6A9B692E4A0820111C98472C4B5B6A6F
:1030B0009B682B4A101C98472C4BDC682C4A2D4BE4
:1030C0002A490091101C11211A1C0023A0472A4BE9
:1030D000DC682A49274A2A4B27480090081C1221FD
:1030E000A047284B9C6B284A284B29490091294925
:1030F000019124490291101C0D211A1C1123A04793
:10310000204B1A4A9A601F4B1B4ADA60224BDC683C
:10311000224B0022009200220192214A0292214A6F
:1031200003920A2204929622D20005921A4A06922B
:10313000181C052100220023A0471B4B8122920569
:103140001A60194B1A680F4B5A63BD4601B090BD07
:103150009C9000208000FAFFC3C00000A80500205A
:10316000F0D50020B8900020F0860020DC900020F0
:103170000000FAFFC1C00600F89000204000FAFFEE
:10318000AC0800201491002000C0FCFFF88600204D
:10319000020B0000540900206C9100200000FEFF8B
:1031A00000A0DF07404B4C0040D6002080B59CB00B
:1031B00000AF3B1C181C00216C2205F061F91F4B6D
:1031C000DB6C391C1D4A081C6C2198471C4B5B6941
:1031D0001C491B4A081C111C98471B4B5B691A4A67
:1031E0000420111C9847C046184B1B68002BFBD0CD
:1031F000124BDB6B114A101C9847114B9B69104A0C
:10320000101C98470023FB6610E0114BFA6E9200E9
:10321000D258104BF96E8900CB580F49081C111C6D
:103220001A1C04F06BF8FB6E0133FB66FA6E0B4B55
:103230009A42EADDBD461CB080BDC0461491002014
:103240009C900020ED0900006C9100206897002000
:10325000ACB600206C97002000870020CF0700004C
:1032600080B582B000AF78607B6808331A1C7B6839
:103270005A607B68012252429A607B6808331A1CAC
:103280007B68DA607B6808331A1C7B681A617B688C
:1032900000221A60BD4602B080BDC04680B582B033
:1032A00000AF78607B6800221A61BD4602B080BD25
:1032B00080B584B000AF786039607B685B68FB6084
:1032C000FB685A683B685A607B685A683B689A603A
:1032D000FB685B683A689A603A68FB685A603A68CB
:1032E0007B685A603B687A681A617B681B685A1C65
:1032F0007B681A60BD4604B080BDC04680B584B00E
:1033000000AF786039603B681B68BB60BB68013305
:1033100003D17B681B69FB600CE07B680833FB60B2
:1033200002E0FB685B68FB60FB685B681A68BB686F
:103330009A42F6D9FB685A683B685A603B685B68FA
:103340003A689A603B68FA689A603A68FB685A6023
:103350003B687A681A617B681B685A1C7B681A6034
:10336000BD4604B080BDC04680B584B000AF786073
:103370007B685B687A6892689A607B689B687A6809
:1033800052685A607B681B69FB60FB685A687B68FF
:103390009A4203D17B689A68FB685A607B68002276
:1033A0001A61FB681B685A1EFB681A60BD4604B0B0
:1033B00080BDC04680B586B000AF7860396000231C
:1033C0007B617B68002B4FD04C2002F075F8031C0A
:1033D0003B613B69002B47D07B683A68534301331C
:1033E000FB60FB68181C02F067F8031C1A1C3B69A1
:1033F0001A603B691B68002B32D03B691A687B68F6
:1034000039684B43D2183B695A603B6900229A6382
:103410003B691A683B699A603B691A687B68013BA3
:1034200039684B43D2183B69DA603B697A68DA63E2
:103430003B693A681A643B69012252425A643B690B
:10344000012252429A643B691033181CFFF708FFAF
:103450003B692433181CFFF703FF3B697B6103E0E2
:103460003B69181C02F03CF87B69002B0CD1094B1E
:10347000181C03F043FF0849084A094B081C111C9B
:103480001A1C03F03BFFFEE77B69181CBD4606B023
:1034900080BDC04610870020208700204087002084
:1034A0002901000080B582B000AF4C2002F004F882
:1034B000031C7B607B68002B2DD07B6800225A6048
:1034C0007B6800221A607B6800229A607B68002279
:1034D000DA607B6800229A637B680122DA637B688A
:1034E00000221A647B68012252425A647B680122DE
:1034F00052429A647B681033181CFFF7B1FE7B6858
:103500002433181CFFF7ACFE7B68181C0021002236
:10351000002300F0CBF87B68002B0CD1084B181C63
:1035200003F0ECFE0749084A084B081C111C1A1C42
:1035300003F0E4FEFEE77B68181CBD4602B080BDC8
:1035400010870020208700204087002059010000BC
:1035500090B585B000AF78607B68002B0DD1174B1C
:10356000181C03F0CBFE1649164AB3235B00081C57
:10357000111C1A1C03F0C2FEFEE77B685C6801F0B8
:1035800021FE031C9C4212D17B68DB685A1E7B68BB
:10359000DA607B68DB68002B06D17B68181C002191
:1035A0000022002300F082F80123FB6001E00023E9
:1035B000FB60FB68181CBD4605B090BD108700205D
:1035C000208700204087002090B585B000AF78604C
:1035D00039607B68002B0CD1194B181C03F08EFE50
:1035E0001849194A194B081C111C1A1C03F086FEB5
:1035F000FEE77B685C6801F0E5FD031C9C4207D197
:103600007B68DB685A1C7B68DA600123FB6011E091
:103610007A683B68101C00211A1C002300F076F920
:10362000031CFB60FB68012B04D17B68DB685A1C20
:103630007B68DA60FB68181CBD4605B090BDC046CB
:10364000108700202087002040870020970100007D
:1036500080B584B000AF786039607B68181C0021A9
:10366000FFF7A8FE031CFB60FB68002B02D0FB6881
:103670003A689A63FB68002B0DD1094B181C03F0C4
:103680003DFE0849084AE6235B00081C111C1A1C71
:1036900003F034FEFEE7FB68181CBD4604B080BD95
:1036A00010870020208700204087002080B588B048
:1036B00000AFF860B9607A603B600023FB61FB6893
:1036C000002B0DD1504B181C03F018FE4F49504AE7
:1036D000EC235B00081C111C1A1C03F00FFEFEE714
:1036E000BB68002B11D1FB681B6C002B0DD0464B27
:1036F000181C03F003FE4549454A464B081C111CA3
:103700001A1C03F0FBFDFEE7C046FCF7D8EDFB6892
:103710009A6BFB68DB6B9A4218D2F968BA683B680F
:10372000081C111C1A1C00F0C9FAFB685B6A002B0C
:1037300008D0FB682433181C01F0BEFA031C012BCF
:1037400000D100DFFCF7DAED012358E07B68002BA5
:1037500003D1FCF7D4ED002351E0FB69002B06D127
:103760003B1C1433181C01F011FB0123FB61FCF717
:10377000C6ED01F077F8FCF7A2EDFB685B6C013356
:1037800002D1FB6800225A64FB689B6C013302D1B2
:10379000FB6800229A64FCF7B2ED3A1C14323B1D20
:1037A000101C191C01F01EFB031C002B20D1FB6810
:1037B000181C00F08DFB031C002B12D0FB681A1C98
:1037C00010327B68101C191C01F02CFAFB68181CC5
:1037D00000F0FAFA01F052F8031C002B94D100DF3C
:1037E00093E7FB68181C00F0EFFA01F047F88CE74C
:1037F000FB68181C00F0E8FA01F040F80023181CE0
:10380000BD4608B080BDC04610870020208700203C
:1038100040870020D901000080B586B000AFF86075
:10382000B9607A603B60FB68002B0CD1314B181CEF
:1038300003F064FD3049314A314B081C111C1A1C3D
:1038400003F05CFDFEE77B68002B0CD1294B181CB4
:1038500003F054FD2849294A2A4B081C111C1A1C44
:1038600003F04CFDFEE7BB68002B10D1FB681B6C1E
:10387000002B0CD01F4B181C03F040FD1E491F4AA3
:10388000214B081C111C1A1C03F038FDFEE7002315
:103890003B61FB689A6BFB68DB6B9A4223D2F96849
:1038A000BA683B68081C111C1A1C00F007FAFB6878
:1038B0009B6C01330FD1FB685B6A002B10D0FB6857
:1038C0002433181C01F0F8F9031C002B08D07B6886
:1038D00001221A6004E0FB689B6C5A1CFB689A6426
:1038E00001237B6101E000237B617B69181CBD46DD
:1038F00006B080BD10870020208700204087002070
:103900001D0300001E0300001F03000080B588B0E7
:1039100000AFF860B9607A603B600023FB61FB6830
:10392000002B0CD1684B181C03F0E8FC6749684A6F
:10393000684B081C111C1A1C03F0E0FCFEE7BB6876
:10394000002B12D1FB681B6C002B0ED05E4B181C99
:1039500003F0D4FC5D495E4AD6239B00081C111C71
:103960001A1C03F0CBFCFEE7C046FCF7A8ECFB6892
:103970009B6B002B3CD0FB68DB68BB61FA68BB68C3
:10398000101C191C00F0F8F93B68002B1CD1FB68D7
:103990009B6B5A1EFB689A63FB681B68002B05D162
:1039A00001F010FC031C1A1CFB685A60FB681B69C1
:1039B000002B19D0FB681033181C01F07DF9031C93
:1039C000012B11D100DF0FE0FB68BA69DA60FB68F8
:1039D0005B6A002B08D0FB682433181C01F06CF9DB
:1039E000031C002B00D000DFFCF788EC012366E00D
:1039F0007B68002B03D1FCF782EC00235FE0FB69BE
:103A0000002B06D13B1C1033181C01F0BFF9012319
:103A1000FB61FCF774EC00F025FFFCF750ECFB6851
:103A20005B6C013302D1FB6800225A64FB689B6C1B
:103A3000013302D1FB6800229A64FCF760EC3A1C67
:103A400010323B1D101C191C01F0CCF9031C002B7B
:103A50002ED1FB68181C00F003FA031C002B20D0A9
:103A6000FB681B68002B08D1FCF728ECFB685B683F
:103A7000181C01F0B5FBFCF742ECFB681A1C243261
:103A80007B68101C191C01F0CDF8FB68181C00F0B5
:103A90009BF900F0F3FE031C002B00D064E700DF6D
:103AA00063E7FB68181C00F08FF900F0E7FE5CE7A5
:103AB000FB68181C00F088F900F0E0FE0023181CD9
:103AC000BD4608B080BDC04610870020208700207A
:103AD000408700205703000080B586B000AFF86033
:103AE000B9607A60FB68002B0DD1334B181C03F0D2
:103AF00005FC3249324AFB239B00081C111C1A1C8E
:103B000003F0FCFBFEE77B68002B0CD12A4B181C52
:103B100003F0F4FB29492A4A2A4B081C111C1A1CE1
:103B200003F0ECFBFEE7BB68002B10D1FB681B6CBD
:103B3000002B0CD0204B181C03F0E0FB1F49204A3F
:103B4000214B081C111C1A1C03F0D8FBFEE70023B4
:103B50003B61FB689B6B002B26D0FA68BB68101C8E
:103B6000191C00F009F9FB689B6B5A1EFB689A63ED
:103B7000FB685B6C01330FD1FB681B69002B10D015
:103B8000FB681033181C01F097F8031C002B08D0B9
:103B90007B6801221A6004E0FB685B6C5A1CFB68BE
:103BA0005A6401237B6101E000237B617B69181C5F
:103BB000BD4606B080BDC04610870020208700208B
:103BC00040870020ED030000EE03000080B584B0C4
:103BD00000AF78607B68002B0CD10C4B181C03F0F5
:103BE0008DFB0B490B4A0C4B081C111C1A1C03F0D3
:103BF00085FBFEE7FCF762EB7B689B6BFB60FCF7E9
:103C00007EEBFB68181CBD4604B080BD1087002009
:103C100020870020408700202204000080B584B067
:103C200000AF78607B68002B0DD10B4B181C03F0A4
:103C300065FB0A490A4A8623DB00081C111C1A1C72
:103C400003F05CFBFEE77B689B6BFB60FB68181C6A
:103C5000BD4604B080BDC0461087002020870020EC
:103C60004087002080B582B000AF78607B68002B71
:103C70000CD10E4B181C03F041FB0D490D4A0E4BA5
:103C8000081C111C1A1C03F039FBFEE77B68181C8A
:103C900000F084F97B681B68181C01F021FC7B682C
:103CA000181C01F01DFCBD4602B080BD108700202D
:103CB00020870020408700203A04000080B584B0AF
:103CC00000AFF860B9607A60FB681B6C002B0CD108
:103CD000FB681B68002B47D1FB685B68181C01F070
:103CE000EBFAFB6800225A603EE07B68002B1BD198
:103CF000FB689968FB681B6CBA68081C111C1A1CCD
:103D000004F040FBFB689A68FB681B6CD218FB68E8
:103D10009A60FB689A68FB685B689A4224D3FB68E8
:103D20001A68FB689A601FE0FB68D968FB681B6C27
:103D3000BA68081C111C1A1C04F024FBFB68DA6822
:103D4000FB681B6C5B42D218FB68DA60FB68DA68C0
:103D5000FB681B689A4207D2FB685A68FB681B6CB9
:103D60005B42D218FB68DA60FB689B6B5A1CFB68ED
:103D70009A63BD4604B080BD80B582B000AF786064
:103D800039607B681B68002B1AD07B68DA687B6817
:103D90001B6CD2187B68DA607B68DA687B685B68CA
:103DA0009A4203D37B681A687B68DA607B68DA68BA
:103DB0007B681B6C3968081C111C1A1C04F0E2FAA1
:103DC000BD4602B080BDC04680B582B000AF78600D
:103DD000FCF774EA12E07B685B6A002B13D07B6807
:103DE0002433181C00F068FF031C002B01D001F0E5
:103DF00067F87B689B6C5A1E7B689A647B689B6C37
:103E0000002BE8DC00E0C0467B68012252429A6445
:103E1000FCF774EAFCF752EA12E07B681B69002B9E
:103E200013D07B681033181C00F046FF031C002BD6
:103E300001D001F045F87B685B6C5A1E7B685A64C0
:103E40007B685B6C002BE8DC00E0C0467B680122ED
:103E500052425A64FCF752EABD4602B080BDC046E9
:103E600080B584B000AF7860FCF728EA7B689B6B74
:103E70005A425341FB60FCF742EAFB68181CBD46FE
:103E800004B080BD80B584B000AF78607B68002B43
:103E90000CD10B4B181C03F031FA0A490A4A0B4BA0
:103EA000081C111C1A1C03F029FAFEE77B689B6BA7
:103EB0005A425341FB60FB68181CBD4604B080BDEC
:103EC000108700202087002040870020C7040000C2
:103ED00080B584B000AF7860FCF7F0E97B689A6B3E
:103EE0007B68DB6BD31A5A425341FB60FCF706EA4E
:103EF000FB68181CBD4604B080BDC04680B584B0C8
:103F000000AF78607B68002B0CD10D4B181C03F0C0
:103F1000F5F90C490C4A0D4B081C111C1A1C03F036
:103F2000EDF9FEE77B689A6B7B68DB6BD31A5A422C
:103F30005341FB60FB68181CBD4604B080BDC04601
:103F4000108700202087002040870020DE0400002A
:103F500080B584B000AF786039600023FB6015E065
:103F60000D4BFA68D200D358002B0CD10A4BFA68DB
:103F7000D2003968D150084AFB68DB00D3180433FB
:103F80007A681A6005E0FB680133FB60FB68092B67
:103F9000E6D9BD4604B080BD44D6002080B584B0CB
:103FA00000AF78600023FB6011E00C4AFB68DB0087
:103FB000D31804331A687B689A4205D1074BFA6814
:103FC000D2000021D15005E0FB680133FB60FB68A3
:103FD000092BEAD9BD4604B080BDC04644D60020B6
:103FE00090B58BB002AFF860B9603B60BB1D1A8022
:103FF000FB68002B0DD16E4B181C03F07FF96D4947
:104000006D4ADB235B00081C111C1A1C03F076F9B7
:10401000FEE73B6B072B0CD9654B181C03F06EF9C0
:104020006449654A654B081C111C1A1C03F066F9AB
:10403000FEE7BB1D1A88BB6B101C191C01F046F86B
:10404000031CBB61BB69002B00D19BE0BB691A6BF1
:10405000BB1D1B88013B9B00D3187B617B6903223E
:1040600093437B617A6903231340002B0CD0504BA0
:10407000181C03F043F94F494F4A514B081C111CBF
:104080001A1C03F03BF9FEE7B869B9683A6BFB6BA1
:10409000BC1D2488009400F02DFF7969FA683B6804
:1040A000081C111C1A1C01F045F9031C1A1CBB69E1
:1040B0001A60BB691B681A1C03231340002B0CD029
:1040C0003B4B181C03F01AF93A493B4A3D4B081C7C
:1040D000111C1A1C03F012F9FEE77B6B002B02D0B7
:1040E0007B6BBA691A60FCF7EAE8374B1B685A1C0D
:1040F000354B1A60354B1B68002B09D1334BBA691D
:104100001A60314B1B68012B0FD100F02BFF0CE024
:104110002F4B1B68002B08D12C4B1B68DA6A3B6BBA
:104120009A4202D8294BBA691A60BB69DA6A294BEC
:104130001B689A4203D9BB69DA6A264B1A60264B80
:104140001B685A1C244B1A60BB69DA6A234B1B6834
:104150009A4203D9BB69DA6A204B1A60BB69DA6AF2
:10416000131C9B009B189B001A1C1D4BD218BB698B
:104170000433101C191CFFF79BF80123FB61FCF7AB
:10418000BEE802E001235B42FB61FB69012B0AD11F
:104190000F4B1B68002B06D00C4B1B68DA6A3B6B7D
:1041A0009A4200D200DFFB69181CBD4609B090BDE1
:1041B000588700206887002088870020B70100000A
:1041C000D9010000FB010000409700202C96002040
:1041D0005097002048970020649700204C970020BB
:1041E0003096002080B584B000AF7860FCF766E8B8
:1041F0001D4B1B687A689A4201D100237B607B6863
:10420000002B02D1184B1B6800E07B68FB60FB6849
:104210000433181CFFF7A8F8FB689B6A002B04D036
:10422000FB681833181CFFF79FF8FB6804330F4A2C
:10423000101C191CFFF73CF80D4B1B685A1C0C4B4B
:104240001A600C4B1B685A1C0A4B1A60FCF756E8A4
:10425000094B1B68002B03D07B68002B00D100DFCB
:10426000BD4604B080BDC0462C96002014970020A7
:1042700028970020649700205097002080B586B0D2
:1042800000AF7860396000237B617B68002B0DD123
:104290002F4B181C03F032F82E492F4AA7239B00FE
:1042A000081C111C1A1C03F029F8FEE73B68002BC0
:1042B0000CD1274B181C03F021F82649264A274B1E
:1042C000081C111C1A1C03F019F8FEE700F0CAFACA
:1042D0007B681A683B68D3183B617B681A68204B7F
:1042E0001B689A420CD97B681A683B699A4213D9B9
:1042F0001B4B1B683A699A420ED901237B610BE084
:104300007B681A683B699A4204D8154B1B683A6966
:104310009A4201D901237B617B683A691A607B6903
:10432000002B09D00F4B1B680433181CFFF71CF837
:104330003B69181C00F094FE00F0A0FA031CFB601F
:10434000FB68002B00D100DFBD4606B080BDC04633
:104350005887002068870020888700209D02000081
:10436000449700202C96002080B584B000AF786080
:104370000023FB607B68002B14D000F073FA0D4B18
:104380001A687B68D318BB600B4B1B680433181C7E
:10439000FEF7EAFFBB68181C00F062FE00F06EFA40
:1043A000031CFB60FB68002B00D100DFBD4604B09E
:1043B00080BDC046449700202C96002080B584B074
:1043C00000AF7860FBF77AEF7B68002B02D1074BD8
:1043D0001B6800E07B68FB60FB68DB6ABB60FBF787
:1043E0008EEFBB68181CBD4604B080BD2C96002023
:1043F00080B586B000AF7860396000237B613B6890
:10440000072B0CD93E4B181C02F078FF3D493E4A61
:104410003E4B081C111C1A1C02F070FFFEE73B68A3
:10442000072B01D907233B60FBF748EF384B1B688C
:104430007A689A4201D100237B607B68002B02D10D
:10444000334B1B6800E07B683B613B691B6CFB6086
:10445000FA683B689A424DD03A68FB689A4205D99F
:104460007B68002B07D001237B6104E07B68002B75
:1044700001D101237B613B691A6C3B69DB6A9A427B
:1044800002D13B693A68DA623B693A681A643B6870
:104490000822D21A3B699A613B695969FA68131C70
:1044A0009B009B189B001A1C1A4BD31899421DD1D4
:1044B0003B690433181CFEF757FF3B69DA6A164B59
:1044C0001B689A4203D93B69DA6A134B1A603B694D
:1044D000DA6A131C9B009B189B001A1C0D4BD21808
:1044E0003B690433101C191CFEF7E2FE7B69012BAB
:1044F00000D100DFFBF702EFBD4606B080BDC0462D
:104500005887002068870020888700202203000049
:104510002C960020309600204C97002080B584B067
:1045200000AF7860FBF7CAEE1E4B1B687A689A42B0
:1045300001D100237B607B68002B02D1194B1B68E3
:1045400000E07B68FB60FB680433181CFEF70CFF7F
:10455000FB689B6A002B04D0FB681833181CFEF71D
:1045600003FFFB680433104A101C191CFEF7A0FE61
:10457000FBF7C4EE7B68002B11D10C4B1B68002BA2
:1045800001D000DF0BE0084B1A68094B1B689A4208
:1045900003D1044B00221A6001E000F0DFFABD46AF
:1045A00004B080BD2C9600202C970020509700204E
:1045B0004097002080B584B000AF78600023FB6096
:1045C0007B68BB607B68002B0CD1114B181C02F080
:1045D00095FE1049104A114B081C111C1A1C02F0C0
:1045E0008DFEFEE7BB685A690D4B9A420AD1BB6843
:1045F0009A6A0C4B9A4205D0BB689B6A002B01D18A
:104600000123FB60FB68181CBD4604B080BDC0469A
:10461000588700206887002088870020CE0300008C
:104620002C9700200097002080B584B000AF786000
:104630007B68002B0CD1254B181C02F05FFE24492F
:10464000244A254B081C111C1A1C02F057FEFEE7D9
:104650007B68FB60FB68002B35D0204B1B68FA6839
:104660009A4230D0FBF72AEEFB68181CFFF7A2FF36
:10467000031C012B25D1FB680433181CFEF774FEC4
:10468000FB68DA6A164B1B689A4203D9FB68DA6A40
:10469000134B1A60FB68DA6A131C9B009B189B0083
:1046A0001A1C104BD218FB680433101C191CFEF79F
:1046B000FFFDFB68DA6A094B1B68DB6A9A4200D38C
:1046C00000DFFBF71CEEBD4604B080BD588700201C
:1046D0006887002088870020EF0300002C960020C8
:1046E0004C9700203096002080B584B000AF7860F1
:1046F0000023FB607B68002B0CD1274B181C02F0B9
:10470000FDFD2649264A274B081C111C1A1C02F0E5
:10471000F5FDFEE77B68BB60BB68181CFFF74AFF2E
:10472000031C012B32D1204B1B68002B27D1BB6807
:10473000D96A1E4B1B68DA6A002391425B41FB6019
:10474000BB680433181CFEF70FFEBB68DA6A184B0F
:104750001B689A4203D9BB68DA6A154B1A60BB68BA
:10476000DA6A131C9B009B189B001A1C114BD21871
:10477000BB680433101C191CFEF79AFD06E0BB68E9
:1047800018330D4A101C191CFEF792FDFB68181C0B
:10479000BD4604B080BDC046588700206887002011
:1047A000888700201C040000549700202C960020CD
:1047B0004C970020309600200097002080B586B0EE
:1047C00004AF194B194A00210091002101910021E9
:1047D000029100210391101C191CBE220023FFF737
:1047E000FFFB031C7B607B68012B09D1FBF74EEDBF
:1047F0000F4B01221A600F4B00221A6000F030FEAE
:104800007B68002B0CD10C4B181C02F077FD0B4978
:104810000B4A0C4B081C111C1A1C02F06FFDFEE722
:10482000BD4602B080BDC046A0870020D54E002006
:104830005097002044970020588700206887002068
:10484000888700207204000080B500AFFBF71EEDE2
:10485000034B00221A6000F00DFEBD4680BDC0462D
:104860005097002080B500AF034B1B685A1C024BC9
:104870001A60BD4680BDC0465497002090B583B0F5
:1048800000AF00237B603C4B1B68002B0DD13B4BE2
:10489000181C02F033FD3A493A4A9223DB00081C07
:1048A000111C1A1C02F02AFDFEE7FBF708ED324B43
:1048B0001B685A1E304B1A602F4B1B68002B53D1BC
:1048C000314B1B68002B4FD000233B6029E02F4B5E
:1048D000DB68DB681C1C231C1833181CFEF744FD26
:1048E000231D181CFEF740FDE26A294B1B689A4203
:1048F00002D9E26A264B1A60E26A131C9B009B18DD
:104900009B001A1C234BD218231D101C191CFEF7E8
:10491000CFFCE26A204B1B68DB6A9A4201D3012379
:104920003B601A4B1B68002BD1D11C4B1B68002B22
:104930000DD006E000F062F8184B1B685A1E174BAA
:104940001A60164B1B68002BF4D101233B603B68B7
:10495000012B03D0124B1B68012B05D101237B6077
:104960000F4B00221A6000DFFBF7C8EC7B68181CB5
:10497000BD4603B090BDC046549700205887002024
:10498000688700208887002040970020009700203B
:104990004C970020309600202C960020589700203D
:1049A0005C97002080B582B000AFFBF788EC054B28
:1049B0001B687B60FBF7A2EC7B68181CBD4602B04D
:1049C00080BDC0464497002080B582B000AF002370
:1049D0007B60044B1B683B603B68181CBD4602B003
:1049E00080BDC0464497002080B500AF024B1B68D5
:1049F000181CBD4680BDC0464097002080B584B0DD
:104A000000AF494B1B68002B00D085E0474B1B686B
:104A10005A1C464B1A60454B1B68002B33D1444B44
:104A20001B681B68002B0CD0424B181C02F066FC64
:104A30004149424A424B081C111C1A1C02F05EFC00
:104A4000FEE73B4B1B68FB603E4B1A68384B1A6015
:104A50003C4BFA681A603C4B1B685A1C3A4B1A6074
:104A6000334B1B681B68002B04D1384B0122524288
:104A70001A6008E02E4B1B68DB68DB68BB60BB6814
:104A80005A68324B1A60294B1A68304B1B689A429D
:104A900047D3274B1B681B68002B04D12B4B0122EB
:104AA00052421A603DE0224B1B68DB68DB68BB604A
:104AB000BB685B687B601D4B1A687B689A4203D2B7
:104AC000224B7A681A602CE0BB680433181CFEF78E
:104AD0004BFCBB689B6A002B04D0BB681833181CC6
:104AE000FEF742FCBB68DA6A194B1B689A4203D98D
:104AF000BB68DA6A164B1A60BB68DA6A131C9B0043
:104B00009B189B001A1C134BD218BB680433101C53
:104B1000191CFEF7CDFBBCE70F4B1B685A1C0E4B54
:104B20001A60BD4604B080BD549700204497002011
:104B3000F89600205887002068870020888700208A
:104B4000CC050000FC960020609700208891002092
:104B50004C970020309600205897002080B582B0F6
:104B600000AF284B1B68002B1BD0274B01221A607B
:104B700044E0264B1B68002B0DD1254B181C02F07E
:104B8000BDFB2449244AD723DB00081C111C1A1C36
:104B900002F0B4FBFEE71D4B1B685A1E1B4B1A604C
:104BA00000E0C046194B1A68131C9B009B189B0021
:104BB0001A1C1A4BD3181B68002BDAD0134B1A6837
:104BC000131C9B009B189B001A1C144BD3187B6072
:104BD0007B685B685A687B685A607B685A687B6848
:104BE00008339A4204D17B685B685A687B685A60D4
:104BF0007B685B68DB681A1C094B1A60BD4602B013
:104C000080BDC046549700205C9700204C97002040
:104C10005887002068870020888700203096002071
:104C20002C96002080B584B000AF786039607B6836
:104C3000002B0CD1194B181C02F060FB1849194AC3
:104C4000194B081C111C1A1C02F058FBFEE7174BED
:104C50001B6818337A68101C191CFEF74FFB134BA6
:104C60001B680433181CFEF77FFB3B68013308D137
:104C70000E4B1B6804330E4A101C191CFEF718FB60
:104C800008E00C4B1A683B68D318FB60FB68181CE3
:104C900000F0E6F9BD4604B080BDC046588700204C
:104CA0006887002088870020CA0600002C96002014
:104CB0002C9700204497002080B584B000AF786026
:104CC0007B68DB68DB68BB60BB68002B0CD1264BC4
:104CD000181C02F013FB2549254A264B081C111C01
:104CE0001A1C02F00BFBFEE7BB681833181CFEF71A
:104CF0003BFB214B1B68002B1ED1BB680433181CE7
:104D0000FEF732FBBB68DA6A1C4B1B689A4203D978
:104D1000BB68DA6A194B1A60BB68DA6A131C9B001D
:104D20009B189B001A1C164BD218BB680433101C2E
:104D3000191CFEF7BDFA06E0BB681833114A101CB7
:104D4000191CFEF7B5FABB68DA6A0F4B1B68DB6A01
:104D50009A4202D30123FB6001E00023FB60FB6861
:104D6000181CBD4604B080BD58870020688700200D
:104D7000888700202B070000549700204C970020C4
:104D800030960020009700202C96002080B582B03D
:104D900000AF78607B68002B0CD10C4B181C02F024
:104DA000ADFA0B490B4A0C4B081C111C1A1C02F0E3
:104DB000A5FAFEE7094B1A687B681A60084B1A6867
:104DC0007B685A60BD4602B080BDC046588700204F
:104DD00068870020888700204D070000609700202A
:104DE0004497002080B584B000AF786039607B685C
:104DF000002B0CD12C4B181C02F080FA2B492C4AAA
:104E00002C4B081C111C1A1C02F078FAFEE73B68B8
:104E1000002B0DD1244B181C02F070FA2349244AB0
:104E2000EB23DB00081C111C1A1C02F067FAFEE7DA
:104E3000FBF744EA3B681B68013302D10023FB60A7
:104E40002AE07B681A681C4B1B689A4208D07B6872
:104E50005A681A4B1B689A4202D80123FB601BE078
:104E6000164B1A687B685B68D21A3B681B689A42CB
:104E700010D23B681A687B685968104B1B68CB1AC4
:104E8000D2183B681A607B68181CFFF77FFF00236D
:104E9000FB6001E00123FB60FBF730EAFB68181CB4
:104EA000BD4604B080BDC0465887002068870020FA
:104EB0008887002057070000609700204497002053
:104EC00080B500AF024B01221A60BD4680BDC046CE
:104ED0005C97002080B582B000AF786000E0C046EB
:104EE00000F084F8024B1B68012BF8D900DFF7E7CC
:104EF0003096002080B584B000AFF860B9607A6069
:104F00003B60FB6834331A1CBB68101C191C0C2254
:104F100003F004FBFA683F230021D1547B68072B80
:104F200001D907237B60FB687A68DA62FB687A68DC
:104F30001A64FB680433181CFEF7B0F9FB681833D9
:104F4000181CFEF7ABF9FB68FA681A617B68082247
:104F5000D21AFB689A61FB68FA685A62BD4604B0CF
:104F600080BDC04680B582B000AF00237B600DE0FD
:104F70007A68131C9B009B189B001A1C134BD318B8
:104F8000181CFEF76DF97B6801337B607B68072B8B
:104F9000EED90F4B181CFEF763F90E4B181CFEF7E9
:104FA0005FF90D4B181CFEF75BF90C4B181CFEF754
:104FB00057F90B4B181CFEF753F90A4B044A1A60B9
:104FC000094B044A1A60BD4602B080BD30960020ED
:104FD000D0960020E496002000970020149700202F
:104FE0002C970020F8960020FC96002080B582B017
:104FF00000AF174B1B68002B26D0FFF733FC154B77
:105000001B685A4253417B60FFF738FC7B68002BDA
:105010001AD1FBF754E9104B5B68DB683B603B68D7
:105020000433181CFEF7A0F90C4B1B685A1E0B4BDF
:105030001A60074B1B685A1E054B1A60FBF75EE9A6
:105040003B68181C00F0AEF8BD4602B080BDC046FB
:1050500028970020149700201C97002040970020DC
:1050600080B582B000AF7860134B1B687A685A60D5
:10507000124B1B687A689A4209D2114B1A680E4B80
:105080001B680433101C191CFEF738F910E00D4B97
:105090001A68094B1B680433101C191CFEF72EF903
:1050A000094B1B687A689A4202D2074B7A681A60E9
:1050B000BD4602B080BDC0462C960020449700201B
:1050C000FC960020F89600208891002080B584B0DE
:1050D00000AF021C3960BB1D1A80442000F0ECF9BF
:1050E000031CFB60FB68002B23D03B68002B08D11E
:1050F000BB1D1B889B00181C00F0DEF9031C1A1C4A
:1051000000E03A68FB681A63FB681B6B002B06D152
:10511000FB68181C00F0E4F90023FB6009E0FB6861
:105120001A6BBB1D1B889B00101CA5211A1C03F0C9
:10513000A7F9FB68181CBD4604B080BD90B583B0CC
:1051400000AF7860002405E07B6801337B60631C5E
:105150001B041C0C7B681B78A52BF5D0A3081B0433
:105160001C0C231C181CBD4603B090BD80B586B036
:1051700000AF78607B68002B02D1094B1B6800E010
:105180007B687B617B691B6B3B613B69181CFFF78C
:10519000D5FF031CFB60FB68181CBD4606B080BD34
:1051A0002C96002080B582B000AF78607B681B6BC6
:1051B000181C00F095F97B68181C00F091F9BD46A9
:1051C00002B080BD80B582B000AF044B1B687B602D
:1051D0007B68181CBD4602B080BDC0462C960020DE
:1051E00080B584B000AF78607B68FB607B68002B83
:1051F0000CD12A4B181C02F081F82949294A2A4B64
:10520000081C111C1A1C02F079F8FEE7FB68DA6A28
:10521000264B1B68DB6A9A423CD2244B1B68DB6A34
:105220000822D21AFB689A61FB685969FB68DA6A3E
:10523000131C9B009B189B001A1C1D4BD3189942F2
:1052400023D1FB680433181CFEF78EF8174B1B683C
:10525000DA6AFB68DA62FB68DA6A164B1B689A4204
:1052600003D9FB68DA6A134B1A60FB68DA6A131C0D
:105270009B009B189B001A1C0D4BD218FB68043333
:10528000101C191CFEF714F804E0084B1B68DA6ABE
:10529000FB68DA62BD4604B080BDC0465887002076
:1052A00068870020888700207E0900002C96002057
:1052B000309600204C97002080B584B000AF786015
:1052C0007B68FB607B68002B2DD0FB68DA6AFB688B
:1052D0001B6C9A4227D0FB680433181CFEF744F875
:1052E000FB681A6CFB68DA62FB68DB6A0822D21A78
:1052F000FB689A61FB68DA6A0C4B1B689A4203D917
:10530000FB68DA6A094B1A60FB68DA6A131C9B00B7
:105310009B189B001A1C064BD218FB680433101C08
:10532000191CFDF7C5FFBD4604B080BD4C97002099
:105330003096002080B586B000AFF860B9607A6022
:10534000FB687B61BB681A1DFB681A60FB68043B45
:10535000FB60FB6800221A60FB68043BFB607A6913
:10536000FB681A60FB68043BFB60FB68304A1A600C
:10537000FB68043BFB60FB682E4A1A60FB68043B39
:10538000FB60FB682C4A1A60FB68043BFB60FB680F
:105390002A4A1A60FB68043BFB60FB68284A1A60D3
:1053A000FB68043BFB60FB68264A1A60FB68043B11
:1053B000FB60FB68244A1A60FB68043BFB60FB68E7
:1053C000224A1A60FB68043BFB60FB68204A1A60B3
:1053D000FB68043BFB60FB681E4A1A60FB68043BE9
:1053E000FB60FB681C4A1A60FB68043BFB60FB68BF
:1053F0001A4A1A60FB68043BFB607A68FB681A6013
:10540000FB68043BFB60FB681F221A60FB681B689B
:1054100020221A43FB681A60FB68043BFB60FB68B0
:1054200000221A60FB68181CBD4606B080BDC0464D
:10543000121212121111111110101010090909097C
:1054400008080808070707070606060605050505F4
:105450000404040403030303020202020101010124
:1054600080B500AF00F00AF8FAF72AEE0023181C06
:10547000BD4680BD80B500AFBD4680BD80B582B061
:1054800000AFFA239B007B607B68181C842100F02E
:10549000B5FE012000F02CFD064B012001211A1C55
:1054A00000F0E8FC012000F00FFD00F0E5FEBD4635
:1054B00002B080BDC801002080B584B000AF786024
:1054C000FFF7D0F97B68181CFBF790FD031CFB600D
:1054D000FFF7D4F9FB68181CBD4604B080BDC04678
:1054E00080B582B000AF78607B68002B07D0FFF7F3
:1054F000B9F97B68181CFCF76BF8FFF7BFF9BD46DC
:1055000002B080BD80B500AFFEE7C04680B500AFF9
:10551000FEE7C04680B500AFFEE7C04680B582B06A
:1055200000AF474B474A1A62C046454B9A6E01236B
:105530001340002BF9D0424B434A9A62C046404B7D
:105540009A6E02231340002BF9D03D4B9A6E042330
:105550001340002B0AD13A4B3C4ADA62C046384B22
:105560009A6E04231340002BF9D000E0C046344B60
:105570009A6E08231340002BF9D0314B9822520128
:105580001A63C0462E4B9A6E08231340002BF9D0A5
:105590002B4B2B4A126B02210A431A63C046284B3D
:1055A0009A6E08231340002BF9D0294A92235B00FE
:1055B00001214942D150264A26498023D150FB1D62
:1055C00001221A700BE0224BFA1D12782249203278
:1055D0009200D150FB1DFA1D127801321A70FB1D8A
:1055E0001B781E2BEFD91A4A1C499A235B00D15015
:1055F000FB1D00221A7009E0154A98235B00002168
:10560000D150FB1DFA1D127801321A70FB1D1B7858
:10561000072BF1D9124B802212025A6000F036F8A3
:10562000104B104A1168104A0A401A600F4B0F4A7B
:1056300011680F4A0A401A60BD4602B080BDC046DC
:1056400000FCFFFF01400000013F2A20053F191028
:1056500000F0FFFF0D5500201555002005550020D6
:1056600040FDFFFF20FDFFFFFFFFFCFF30FDFFFFC0
:10567000FFFFFFFD80B500AF034A80235B000021E0
:10568000D150BD4680BDC04600EEFFFF80B500AFE3
:10569000034A80235B000321D150BD4680BDC04634
:1056A00000EEFFFF80B586B000AF021CFB1D1A7034
:1056B00080239B053B613B1C163300221A8000238C
:1056C000FB60FB1D1B78102B04D13B1C1633802282
:1056D0001A8004E03B1C163300221A80C046444B5B
:1056E000181C012100F0BCFC424A8E235B00D358F9
:1056F00002221343FB603F4A8E235B00F968D150BE
:105700003D4B3A1C163212883C490A431204120CD3
:105710003B490A439A600023BB6002E0BB68013347
:10572000BB60BA68374B9A42F8D9334B01221A60F2
:105730003B6900221A60304B02221A603B6900224A
:105740001A600023BB6002E0BB680133BB60BA682B
:105750002D4B9A42F8D9284B04221A603B69043336
:1057600001221A60244B04221A603B69083302228A
:105770001A60214B04221A603B690C3303221A6021
:105780001D4B04221A603B69103304221A601A4B25
:1057900004221A603B69143305221A60164B042256
:1057A0001A603B69183306221A60134B04221A60F0
:1057B0003B691C3307221A600F4B04221A603B69B5
:1057C000203308221A600C4B03221A603B692433F1
:1057D0000E4A1A60084BE72292005A60064B0022DC
:1057E0001A603B6900221A60BD4606B080BDC04603
:1057F000B487002000EEFFFF00EAFFFF7992FFFF71
:10580000000033A6E70300000F270000DEDEFECA1B
:1058100080B586B000AF021CFB1D1A7080239B056B
:105820003B613B1C163300221A800023FB60FB1DEA
:105830001B78102B04D13B1C163380221A8004E005
:105840003B1C163300221A80C046444B181C012111
:1058500000F006FC424A8E235B00D3580222134319
:10586000FB603F4A8E235B00F968D1503D4B3A1CE8
:10587000163212883C490A431204120C3B490A436F
:105880009A600023BB6002E0BB680133BB60BA686A
:10589000374B9A42F8D9334B01221A603B690022F8
:1058A0001A60304B02221A603B6900221A60002302
:1058B000BB6002E0BB680133BB60BA682D4B9A4203
:1058C000F8D9284B04221A603B69043301221A607C
:1058D000244B04221A603B69083302221A60214BD0
:1058E00004221A603B690C3303221A601D4B042208
:1058F0001A603B69103304221A601A4B04221A60A2
:105900003B69143305221A60164B04221A603B6966
:10591000183306221A60134B04221A603B691C33A9
:1059200007221A600F4B04221A603B6920330822B9
:105930001A600C4B03221A603B6924330E4A1A602A
:10594000084BA82252005A60064B00221A603B699D
:1059500000221A60BD4606B080BDC046A887002060
:1059600000EEFFFF00EAFFFF594100000000113286
:10597000E70300000F270000DEDEFECA80B582B01C
:1059800000AF021CFB1D1A70164A16498E235B00DD
:10599000CB58082119438E235B00D150124B134A78
:1059A0001A63114B124A5A630F4B124A9A630E4BF9
:1059B000114ADA63FB1D1B78082B04D10A4B0A4AF3
:1059C000D26BDA630AE0FB1D1B78102B06D1064B65
:1059D000054AD26B802149010A43DA63BD4602B011
:1059E00080BDC04600EEFFFF00ECFFFF020002009A
:1059F00004040404070007000300030080B582B01C
:105A000000AF021CFB1D1A70144B144AD268082107
:105A10000A43DA60124B134A1A63114B124A5A6353
:105A20000F4B124A9A630E4B114ADA63FB1D1B7827
:105A3000082B04D10A4B0A4AD26BDA630AE0FB1D39
:105A40001B78102B06D1064B054AD26B80214901E9
:105A50000A43DA63BD4602B080BDC04610EFFFFFC7
:105A600000ECFFFF01000100020303040400070033
:105A70000300010080B582B000AF021CFB1D1A704C
:105A8000174B02221A60164B164A5A60144B164ADC
:105A90009A60134B154ADA60FB1D1B78082B04D162
:105AA0000F4B0F4AD268DA6016E0FB1D1B78102BF3
:105AB00007D10B4B0A4AD268802149010A43DA60B8
:105AC0000AE0FB1D1B78202B06D1054B044AD26847
:105AD000802189010A43DA60BD4602B080BDC0461C
